:100000000C9446000C9465000C9465000C946500FB
:100010000C9465000C9465000C9465000C946500CC
:100020000C9465000C9465000C9465000C946500BC
:100030000C9465000C94E3000C9465000C9465002E
:100040000C9465000C9465000C9465000C9465009C
:100050000C9465000C9465000C9465000C9465008C
:100060000C9465000C9465000C9465000C9465007C
:100070000C9465000C9465000C9465000C9465006C
:100080000C9465000C9465000C94650011241FBE4F
:10009000CFEFD0E4DEBFCDBF11E0A0E0B1E0ECEDEA
:1000A000FCE000E00BBF02C007900D92A231B10747
:1000B000D9F721E0A2E1B1E001C01D92AA33B20755
:1000C000E1F70E942A050C946C060C940000CF9373
:1000D000DF9300D000D0CDB7DEB769837A838B83FE
:1000E0009C8389819A81AB81BC818093000190932C
:1000F0000101A0930201B09303018091000190914E
:100100000101A0910201B09103018093130190932A
:100110001401A0931501B093160100000F900F90E9
:100120000F900F90DF91CF910895CF93DF93CDB7CC
:10013000DEB781E890E02BE0FC01208388E890E0C6
:100140002DE730E0FC01318320838FE690E022E050
:10015000FC01208384E890E0FC01118210828091F0
:10016000000190910101A0910201B09103018093DF
:10017000130190931401A0931501B09316018FE51C
:1001800090E02FE530E0F90120812068FC01208318
:100190000000DF91CF910895CF93DF93CDB7DEB705
:1001A00081E890E0FC0110820000DF91CF9108957A
:1001B000CF93DF93CDB7DEB781E0809312010000CB
:1001C000DF91CF9108951F920F9200905F000F92E0
:1001D000112400905B000F922F933F934F935F93F6
:1001E0006F937F938F939F93AF93BF93EF93FF93FF
:1001F000CF93DF93CDB7DEB78091130190911401B7
:10020000A0911501B09116010197A109B109809340
:10021000130190931401A0931501B09316018091DE
:10022000130190911401A0911501B0911601892B31
:100230008A2B8B2B91F40E94D80080910001909121
:100240000101A0910201B0910301809313019093E9
:100250001401A0931501B09316010000DF91CF9116
:10026000FF91EF91BF91AF919F918F917F916F918E
:100270005F914F913F912F910F9000925B000F90F3
:1002800000925F000F901F901895CF93DF9300D0DE
:100290001F92CDB7DEB789837B836A8389818A30D9
:1002A00031F48A819B81BC018DE00E94450180EC84
:1002B00090E0FC018081882F90E080729927892B43
:1002C000B1F386EC90E02981FC01208380E090E08E
:1002D0000F900F900F90DF91CF910895CF93DF9300
:1002E000CDB7DEB78091190190911A018130910547
:1002F000D9F08130910540F08230910509F498C021
:10030000039709F4AEC0C6C01092360110923701AF
:10031000109238011092390181E090E090931A0117
:10032000809319010000B6C0109236011092370177
:10033000109238011092390180E290E0FC01808136
:10034000809583708093180180911801813099F510
:1003500080911C0190911D01A0911E01B0911F017F
:1003600020E030E04AE754E4BC01CD010E94ED05F5
:100370001816D4F080911C0190911D01A0911E01CE
:10038000B0911F0120E030E040E85FE3BC01CD0107
:100390000E948105DC01CB0180931C0190931D011B
:1003A000A0931E01B0931F0182E090E090931A0188
:1003B000809319013DC080911801823099F5809198
:1003C0001C0190911D01A0911E01B0911F0120E020
:1003D00030E040E050E4BC01CD010E946706882374
:1003E000D4F080911C0190911D01A0911E01B0914B
:1003F0001F0120E030E040E85FE3BC01CD010E9436
:100400008005DC01CB0180931C0190931D01A0931A
:100410001E01B0931F0183E090E090931A01809336
:10042000190106C081E090E090931A0180931901B0
:1004300080E290E0FC0180818095837080931801B8
:1004400080911801882339F481E090E090931A019B
:100450008093190106C082E090E090931A01809386
:10046000190180E290E0FC01808180958370809387
:10047000180180911801882339F481E090E090936D
:100480001A018093190106C083E090E090931A014D
:10049000809319010000DF91CF910895CF93DF93EE
:1004A000CDB7DEB780912001909121018130910577
:1004B000E1F08130910540F08230910509F45AC095
:1004C000039709F49CC0E0C010921B01109229010F
:1004D00010922A0110922B0110922C0181E090E0E1
:1004E0009093210180932001CFC0809129019091A8
:1004F0002A01A0912B01B0912C0120E030E046E9C7
:1005000053E4BC01CD010E94670688237CF0109261
:10051000290110922A0110922B0110922C0182E0E5
:1005200090E0909321018093200120C081E090E031
:1005300090932101809320018091290190912A01BB
:10054000A0912B01B0912C0120E030E040E85FE366
:10055000BC01CD010E948105DC01CB018093290102
:1005600090932A01A0932B01B0932C0181E08093FA
:100570001B018AC08091290190912A01A0912B0131
:10058000B0912C0120E030E046E953E4BC01CD01FC
:100590000E94670688237CF01092290110922A019C
:1005A00010922B0110922C0183E090E09093210196
:1005B0008093200120C082E090E0909321018093FD
:1005C00020018091290190912A01A0912B01B091E5
:1005D0002C0120E030E040E85FE3BC01CD010E9447
:1005E0008105DC01CB018093290190932A01A0931E
:1005F0002B01B0932C0182E080931B0145C08091B8
:10060000290190912A01A0912B01B0912C0120E0A9
:1006100030E046E953E4BC01CD010E94670688231F
:100620007CF01092290110922A0110922B01109255
:100630002C0181E090E0909321018093200120C063
:1006400083E090E090932101809320018091290123
:1006500090912A01A0912B01B0912C0120E030E073
:1006600040E85FE3BC01CD010E948105DC01CB01C4
:100670008093290190932A01A0932B01B0932C0120
:1006800084E080931B0100000000DF91CF9108956A
:10069000CF93DF93CDB7DEB78091300190913101D8
:1006A00081309105C1F08130910520F0029709F465
:1006B00057C09AC010922F0110923201109233014C
:1006C000109234011092350181E090E09093310155
:1006D0008093300189C08091320190913301A091C3
:1006E0003401B091350120E030E04AE754E4BC0128
:1006F000CD010E94670688237CF082E090E0909311
:100700003101809330011092320110923301109226
:1007100034011092350120C081E090E090933101C6
:10072000809330018091320190913301A091340186
:10073000B091350120E030E040E85FE3BC01CD013D
:100740000E948105DC01CB0180933201909333013B
:10075000A0933401B093350181E080932F0144C010
:100760008091320190913301A0913401B091350113
:1007700020E030E04AE754E4BC01CD010E94670666
:1007800088237CF081E090E09093310180933001E8
:1007900010923201109233011092340110923501FF
:1007A00020C082E090E090933101809330018091ED
:1007B000320190913301A0913401B091350120E0D4
:1007C00030E040E85FE3BC01CD010E948105DC011F
:1007D000CB018093320190933301A0933401B09305
:1007E000350110922F0100000000DF91CF91089594
:1007F000CF93DF93CDB7DEB7809122019091230193
:100800008130910509F47BC08130910518F0029781
:1008100091F0DCC010922401109225011092260163
:10082000109227011092170182E090E0909323012B
:1008300080932201CBC01092170180E290E0FC016E
:100840008081809584708093180180911801843094
:1008500009F046C08091240190912501A0912601C4
:10086000B091270120911C0130911D0140911E0182
:1008700050911F01BC01CD010E94670688237CF0C6
:100880001092240110922501109226011092270146
:1008900081E090E0909323018093220197C082E051
:1008A00090E0909323018093220180912401909104
:1008B0002501A0912601B091270120E030E040E819
:1008C0005FE3BC01CD010E948105DC01CB01809377
:1008D000240190932501A0932601B093270176C0AF
:1008E00082E090E0909323018093220110922401F2
:1008F00010922501109226011092270167C080E214
:1009000090E0FC0180818095847080931801809133
:100910001801843009F049C081E08093170180916B
:10092000240190912501A0912601B09127012091E9
:100930001C0130911D0140911E0150911F01BC010D
:10094000CD010E94670688237CF01092240110924A
:100950002501109226011092270182E090E09093E9
:1009600023018093220132C081E090E09093230123
:10097000809322018091240190912501A09126016C
:10098000B091270120E030E040E85FE3BC01CD01F9
:100990000E948105DC01CB01809324019093250105
:1009A000A0932601B093270111C082E090E09093BC
:1009B00023018093220110922401109225011092AC
:1009C0002601109227011092170100C00000DF914C
:1009D000CF910895CF93DF93CDB7DEB780912D01EE
:1009E00090912E01009719F0019761F02FC081E0DE
:1009F00090E090932E0180932D0185E290E0FC0120
:100A0000108224C080911701882F90E082959295E2
:100A1000907F9827807F9827282F80911B01882F0F
:100A200090E0880F991F822B90912F01892B809342
:100A3000280185E290E020912801FC01208381E0DB
:100A400090E090932E0180932D0100000000DF9133
:100A5000CF910895CF93DF93CDB7DEB784E290E0D6
:100A60002FEFFC01208385E290E0FC01108281E2FF
:100A700090E0FC01108282E290E02FEFFC012083E5
:100A800010921B0110922F011092280180E090E03B
:100A9000A0E0B0E480931C0190931D01A0931E017F
:100AA000B0931F0110922101109220011092310188
:100AB0001092300110922E0110922D0110922301FC
:100AC0001092220110921A011092190161E070E057
:100AD00080E090E00E9467000E9495000E944E0214
:100AE0000E9448030E946E010E94F8030E94EA04DB
:100AF0000000809112018823E1F310921201EECFE1
:100B00005058BB27AA270E9498050C942D060E94D6
:100B10001F0638F00E94260620F039F49F3F19F492
:100B200026F40C941C060EF4E095E7FB0C941606D4
:100B3000E92F0E943E0658F3BA176207730784072D
:100B4000950720F079F4A6F50C9460060EF4E09574
:100B50000B2EBA2FA02D0B01B90190010C01CA0177
:100B6000A0011124FF27591B99F0593F50F4503E22
:100B700068F11A16F040A22F232F342F4427585F14
:100B8000F3CF469537952795A795F0405395C9F72C
:100B90007EF41F16BA0B620B730B840BBAF09150E4
:100BA000A1F0FF0FBB1F661F771F881FC2F70EC083
:100BB000BA0F621F731F841F48F487957795679556
:100BC000B795F7959E3F08F0B0CF9395880F08F042
:100BD0009927EE0F9795879508950E94F20508F4DE
:100BE00081E00895990F0008550FAA0BE0E8FEEF89
:100BF00016161706E807F907C0F012161306E407E1
:100C0000F50798F0621B730B840B950B39F40A26D9
:100C100061F0232B242B252B21F408950A2609F4B7
:100C2000A140A6958FEF811D811D089597F99F67BB
:100C300080E870E060E008959FEF80EC0895002464
:100C40000A941616170618060906089500240A9431
:100C500012161306140605060895092E0394000CB7
:100C600011F4882352F0BB0F40F4BF2B11F460FF46
:100C700004C06F5F7F4F8F4F9F4F089557FD90586F
:100C8000440F551F59F05F3F71F04795880F97FB50
:100C9000991F61F09F3F79F087950895121613060A
:100CA0001406551FF2CF4695F1DF08C01616170639
:100CB0001806991FF1CF869571056105089408956E
:100CC000E894BB2766277727CB0197F908950E9400
:0C0CD000F20508F48FEF0895F894FFCFB0
:100CDC0001000000000000020000000045010000BF
:020CEC00000006
:00000001FF
